{
  "contractName": "ScaaSSC",
  "abi": [
    {
      "constant": true,
      "inputs": [],
      "name": "minStake",
      "outputs": [
        {
          "name": "",
          "type": "uint256"
        }
      ],
      "payable": false,
      "stateMutability": "view",
      "type": "function",
      "signature": "0x375b3c0a"
    },
    {
      "constant": false,
      "inputs": [],
      "name": "renounceOwnership",
      "outputs": [],
      "payable": false,
      "stateMutability": "nonpayable",
      "type": "function",
      "signature": "0x715018a6"
    },
    {
      "constant": true,
      "inputs": [],
      "name": "owner",
      "outputs": [
        {
          "name": "",
          "type": "address"
        }
      ],
      "payable": false,
      "stateMutability": "view",
      "type": "function",
      "signature": "0x8da5cb5b"
    },
    {
      "constant": true,
      "inputs": [],
      "name": "isOwner",
      "outputs": [
        {
          "name": "",
          "type": "bool"
        }
      ],
      "payable": false,
      "stateMutability": "view",
      "type": "function",
      "signature": "0x8f32d59b"
    },
    {
      "constant": true,
      "inputs": [],
      "name": "oraclePercantage_",
      "outputs": [
        {
          "name": "",
          "type": "uint256"
        }
      ],
      "payable": false,
      "stateMutability": "view",
      "type": "function",
      "signature": "0xce606c3e"
    },
    {
      "constant": true,
      "inputs": [
        {
          "name": "",
          "type": "uint256"
        }
      ],
      "name": "channels",
      "outputs": [
        {
          "name": "oracleAddress",
          "type": "address"
        },
        {
          "name": "ipnsId",
          "type": "string"
        },
        {
          "name": "a",
          "type": "address"
        },
        {
          "name": "b",
          "type": "address"
        },
        {
          "name": "currentState",
          "type": "uint8"
        }
      ],
      "payable": false,
      "stateMutability": "view",
      "type": "function",
      "signature": "0xe5949b5d"
    },
    {
      "constant": false,
      "inputs": [
        {
          "name": "newOwner",
          "type": "address"
        }
      ],
      "name": "transferOwnership",
      "outputs": [],
      "payable": false,
      "stateMutability": "nonpayable",
      "type": "function",
      "signature": "0xf2fde38b"
    },
    {
      "anonymous": false,
      "inputs": [
        {
          "indexed": true,
          "name": "previousOwner",
          "type": "address"
        },
        {
          "indexed": true,
          "name": "newOwner",
          "type": "address"
        }
      ],
      "name": "OwnershipTransferred",
      "type": "event",
      "signature": "0x8be0079c531659141344cd1fd0a4f28419497f9722a3daafe3b4186f6b6457e0"
    },
    {
      "constant": false,
      "inputs": [
        {
          "name": "_channelId",
          "type": "uint256"
        },
        {
          "name": "_oracleAddress",
          "type": "address"
        },
        {
          "name": "_ipnsId",
          "type": "string"
        },
        {
          "name": "_b",
          "type": "address"
        }
      ],
      "name": "newChannel",
      "outputs": [],
      "payable": true,
      "stateMutability": "payable",
      "type": "function",
      "signature": "0xdb374956"
    },
    {
      "constant": false,
      "inputs": [
        {
          "name": "_channelId",
          "type": "uint256"
        }
      ],
      "name": "joinChannel",
      "outputs": [],
      "payable": true,
      "stateMutability": "payable",
      "type": "function",
      "signature": "0x2819cc0c"
    },
    {
      "constant": false,
      "inputs": [
        {
          "name": "_channelId",
          "type": "uint256"
        }
      ],
      "name": "exitChannel",
      "outputs": [],
      "payable": false,
      "stateMutability": "nonpayable",
      "type": "function",
      "signature": "0xb3bb76c5"
    },
    {
      "constant": false,
      "inputs": [
        {
          "name": "_channelId",
          "type": "uint256"
        }
      ],
      "name": "refund",
      "outputs": [],
      "payable": false,
      "stateMutability": "nonpayable",
      "type": "function",
      "signature": "0x278ecde1"
    },
    {
      "constant": true,
      "inputs": [
        {
          "name": "_channelId",
          "type": "uint256"
        }
      ],
      "name": "getChannelInfo",
      "outputs": [
        {
          "name": "",
          "type": "address"
        },
        {
          "name": "",
          "type": "string"
        },
        {
          "name": "",
          "type": "address"
        },
        {
          "name": "",
          "type": "address"
        },
        {
          "name": "",
          "type": "uint256"
        },
        {
          "name": "",
          "type": "uint256"
        },
        {
          "name": "",
          "type": "uint8"
        }
      ],
      "payable": false,
      "stateMutability": "view",
      "type": "function",
      "signature": "0x1d7a4993"
    },
    {
      "constant": false,
      "inputs": [
        {
          "name": "_channelId",
          "type": "uint256"
        },
        {
          "name": "balanceAddr1_",
          "type": "uint256"
        },
        {
          "name": "balanceAddr2_",
          "type": "uint256"
        },
        {
          "name": "_ipfsContent",
          "type": "bytes"
        },
        {
          "name": "_signatureOracle",
          "type": "bytes"
        },
        {
          "name": "_signatureLast",
          "type": "bytes"
        }
      ],
      "name": "closeChannel",
      "outputs": [],
      "payable": false,
      "stateMutability": "nonpayable",
      "type": "function",
      "signature": "0x98ddbdc7"
    },
    {
      "constant": true,
      "inputs": [
        {
          "name": "_msg",
          "type": "bytes"
        }
      ],
      "name": "toEthPersonalSignedMessageHash",
      "outputs": [
        {
          "name": "signHash",
          "type": "bytes32"
        }
      ],
      "payable": false,
      "stateMutability": "pure",
      "type": "function",
      "signature": "0xd8a40f6b"
    }
  ],
  "bytecode": "0x60806040819052600a6001556611c37937e0800060025560008054600160a060020a0319163317808255600160a060020a0316917f8be0079c531659141344cd1fd0a4f28419497f9722a3daafe3b4186f6b6457e0908290a3611727806100676000396000f3fe6080604052600436106100cf5763ffffffff7c01000000000000000000000000000000000000000000000000000000006000350416631d7a499381146100d4578063278ecde1146101e45780632819cc0c14610210578063375b3c0a1461022d578063715018a6146102545780638da5cb5b146102695780638f32d59b1461029a57806398ddbdc7146102c3578063b3bb76c5146103f7578063ce606c3e14610421578063d8a40f6b14610436578063db374956146104e9578063e5949b5d146105af578063f2fde38b1461068c575b600080fd5b3480156100e057600080fd5b506100fe600480360360208110156100f757600080fd5b50356106bf565b6040518088600160a060020a0316600160a060020a031681526020018060200187600160a060020a0316600160a060020a0316815260200186600160a060020a0316600160a060020a0316815260200185815260200184815260200183600281111561016657fe5b60ff168152602001828103825288818151815260200191508051906020019080838360005b838110156101a357818101518382015260200161018b565b50505050905090810190601f1680156101d05780820380516001836020036101000a031916815260200191505b509850505050505050505060405180910390f35b3480156101f057600080fd5b5061020e6004803603602081101561020757600080fd5b50356107c9565b005b61020e6004803603602081101561022657600080fd5b5035610927565b34801561023957600080fd5b50610242610a7e565b60408051918252519081900360200190f35b34801561026057600080fd5b5061020e610a84565b34801561027557600080fd5b5061027e610b43565b60408051600160a060020a039092168252519081900360200190f35b3480156102a657600080fd5b506102af610b53565b604080519115158252519081900360200190f35b3480156102cf57600080fd5b5061020e600480360360c08110156102e657600080fd5b8135916020810135916040820135919081019060808101606082013564010000000081111561031457600080fd5b82018360208201111561032657600080fd5b8035906020019184600183028401116401000000008311171561034857600080fd5b91939092909160208101903564010000000081111561036657600080fd5b82018360208201111561037857600080fd5b8035906020019184600183028401116401000000008311171561039a57600080fd5b9193909290916020810190356401000000008111156103b857600080fd5b8201836020820111156103ca57600080fd5b803590602001918460018302840111640100000000831117156103ec57600080fd5b509092509050610b64565b34801561040357600080fd5b5061020e6004803603602081101561041a57600080fd5b5035610d73565b34801561042d57600080fd5b50610242610e85565b34801561044257600080fd5b506102426004803603602081101561045957600080fd5b81019060208101813564010000000081111561047457600080fd5b82018360208201111561048657600080fd5b803590602001918460018302840111640100000000831117156104a857600080fd5b91908080601f016020809104026020016040519081016040528093929190818152602001838380828437600092019190915250929550610e8b945050505050565b61020e600480360360808110156104ff57600080fd5b813591600160a060020a036020820135169181019060608101604082013564010000000081111561052f57600080fd5b82018360208201111561054157600080fd5b8035906020019184600183028401116401000000008311171561056357600080fd5b91908080601f01602080910402602001604051908101604052809392919081815260200183838082843760009201919091525092955050509035600160a060020a03169150610f7d9050565b3480156105bb57600080fd5b506105d9600480360360208110156105d257600080fd5b50356111a9565b60408051600160a060020a038088168252858116928201929092529083166060820152602081016080820183600281111561061057fe5b60ff168152602001828103825286818151815260200191508051906020019080838360005b8381101561064d578181015183820152602001610635565b50505050905090810190601f16801561067a5780820380516001836020036101000a031916815260200191505b50965050505050505060405180910390f35b34801561069857600080fd5b5061020e600480360360208110156106af57600080fd5b5035600160a060020a031661127f565b6000818152600360208181526040808420805460028083015495830154600160a060020a0396871680895260048501875285892054918816808a52868a20546005870154600180890180548b516101009382161593909302600019011697909704601f81018c90048c0282018c01909a5289815260609b8d9b8c9b8c9b8c9b8c9b919a9416989097909690959394909360ff1692909188918301828280156107a85780601f1061077d576101008083540402835291602001916107a8565b820191906000526020600020905b81548152906001019060200180831161078b57829003601f168201915b50505050509550975097509750975097509750975050919395979092949650565b808015156107d657600080fd5b600260008281526003602052604090206005015460ff1660028111156107f857fe5b1461080257600080fd5b6000818152600360209081526040808320338452600401909152902054151561082a57600080fd5b600082815260036020908152604080832033808552600482019093528184208054908590559151909391929183156108fc02918491818181858888f1935050505015801561087c573d6000803e3d6000fd5b506002820154600160a060020a031660009081526004830160205260409020541580156108c557506003820154600160a060020a03166000908152600483016020526040902054155b156109215760008481526003602052604081208054600160a060020a0319168155906108f4600183018261161f565b50600281018054600160a060020a03199081169091556003820180549091169055600501805460ff191690555b50505050565b8080151561093457600080fd5b6001546109589061094c34606463ffffffff61130016565b9063ffffffff61132616565b60008281526003602090815260408083206002810154600160a060020a0316845260040190915290205434919091031461099157600080fd5b60008181526003602081905260409091200154600160a060020a031633146109b857600080fd5b60008181526003602052604081206005015460ff1660028111156109d857fe5b146109e257600080fd5b6000828152600360205260409020600154610a089061094c34606463ffffffff61130016565b33600090815260048301602052604090203491820390558154600154600160a060020a03909116916108fc91610a439161094c906064611300565b6040518115909202916000818181858888f19350505050158015610a6b573d6000803e3d6000fd5b50600501805460ff191660011790555050565b60025481565b610a8c610b53565b1515610af957604080517f08c379a000000000000000000000000000000000000000000000000000000000815260206004820181905260248201527f4f776e61626c653a2063616c6c6572206973206e6f7420746865206f776e6572604482015290519081900360640190fd5b60008054604051600160a060020a03909116907f8be0079c531659141344cd1fd0a4f28419497f9722a3daafe3b4186f6b6457e0908390a360008054600160a060020a0319169055565b600054600160a060020a03165b90565b600054600160a060020a0316331490565b88801515610b7157600080fd5b600160008281526003602052604090206005015460ff166002811115610b9357fe5b14610b9d57600080fd5b600081815260036020526040902054600160a060020a03163314610bc057600080fd5b60008a81526003602090815260408083208151601f8b018490048402810184019092528982529291610c0d91908b908b9081908401838280828437600092019190915250610e8b92505050565b9050610c4f8188888080601f01602080910402602001604051908101604052809392919081815260200183838082843760009201919091525061135892505050565b8254600160a060020a03908116911614610c6857600080fd5b610ca88186868080601f01602080910402602001604051908101604052809392919081815260200183838082843760009201919091525061135892505050565b6002830154600160a060020a0390811691161480610d155750610d018186868080601f01602080910402602001604051908101604052809392919081815260200183838082843760009201919091525061135892505050565b6003830154600160a060020a039081169116145b1515610d2057600080fd5b600280830154600160a060020a0390811660009081526004850160205260408082208f905560038601549092168152208b905560058301805460ff19166001830217905550505050505050505050505050565b80801515610d8057600080fd5b600081815260036020526040902060020154600160a060020a03163314610da657600080fd5b60008181526003602052604081206005015460ff166002811115610dc657fe5b14610dd057600080fd5b60008281526003602090815260408083203380855260048201909352818420549151909382156108fc02929190818181858888f19350505050158015610e1a573d6000803e3d6000fd5b5060058101805460ff1916600217905560008381526003602052604081208054600160a060020a031916815590610e54600183018261161f565b50600281018054600160a060020a03199081169091556003820180549091169055600501805460ff19169055505050565b60015481565b6000610e97825161140d565b8260405160200180807f19457468657265756d205369676e6564204d6573736167653a0a000000000000815250601a0183805190602001908083835b60208310610ef25780518252601f199092019160209182019101610ed3565b51815160209384036101000a600019018019909216911617905285519190930192850191508083835b60208310610f3a5780518252601f199092019160209182019101610f1b565b6001836020036101000a03801982511681845116808217855250505050505090500192505050604051602081830303815290604052805190602001209050919050565b838383838315801590610f985750600160a060020a03831615155b8015610fa45750815115155b8015610fb85750600160a060020a03811615155b1515610fc357600080fd5b60008481526003602052604090206001908101546002918116156101000260001901160415610ff157600080fd5b60025434101561100057600080fd5b6040805160a081018252600160a060020a03898116825260208083018a8152338486015289831660608501526000608085018190528d8152600383529490942083518154600160a060020a0319169316929092178255925180519293919261106e9260018501920190611663565b50604082015160028083018054600160a060020a03938416600160a060020a03199182161790915560608501516003850180549190941691161790915560808301516005830180549192909160ff19169060019084908111156110cd57fe5b0217905550505060008881526003602052604090208054600154600160a060020a03909116906108fc9061110c9061094c34606463ffffffff61130016565b6040518115909202916000818181858888f19350505050158015611134573d6000803e3d6000fd5b5060015461114d9061094c34606463ffffffff61130016565b336000908152600483016020526040902034918203905560015461117c9161094c90606463ffffffff61130016565b600160a060020a039096166000908152600490910160205260409020349590950390945550505050505050565b6003602090815260009182526040918290208054600180830180548651600261010094831615949094026000190190911692909204601f8101869004860283018601909652858252600160a060020a039092169492939092908301828280156112535780601f1061122857610100808354040283529160200191611253565b820191906000526020600020905b81548152906001019060200180831161123657829003601f168201915b50505050600283015460038401546005909401549293600160a060020a03918216939116915060ff1685565b611287610b53565b15156112f457604080517f08c379a000000000000000000000000000000000000000000000000000000000815260206004820181905260248201527f4f776e61626c653a2063616c6c6572206973206e6f7420746865206f776e6572604482015290519081900360640190fd5b6112fd81611527565b50565b600080821161130e57600080fd5b6000828481151561131b57fe5b049150505b92915050565b600082151561133757506000611320565b82820282848281151561134657fe5b041461135157600080fd5b9392505050565b60208101516040820151606083015160009290831a91601b60ff8416101561138157601b830192505b8260ff16601b148061139657508260ff16601c145b15156113a157600080fd5b6040805160008152602080820180845289905260ff8616828401526060820185905260808201849052915160019260a0808401939192601f1981019281900390910190855afa1580156113f8573d6000803e3d6000fd5b5050604051601f190151979650505050505050565b6060811515611450575060408051808201909152600181527f30000000000000000000000000000000000000000000000000000000000000006020820152611522565b8160005b811561146857600101600a82049150611454565b6060816040519080825280601f01601f191660200182016040528015611495576020820181803883390190505b50905060001982015b851561151c5781516000198201917f01000000000000000000000000000000000000000000000000000000000000006030600a8a0601029184919081106114e157fe5b9060200101907effffffffffffffffffffffffffffffffffffffffffffffffffffffffffffff1916908160001a905350600a8604955061149e565b50925050505b919050565b600160a060020a03811615156115c457604080517f08c379a000000000000000000000000000000000000000000000000000000000815260206004820152602660248201527f4f776e61626c653a206e6577206f776e657220697320746865207a65726f206160448201527f6464726573730000000000000000000000000000000000000000000000000000606482015290519081900360840190fd5b60008054604051600160a060020a03808516939216917f8be0079c531659141344cd1fd0a4f28419497f9722a3daafe3b4186f6b6457e091a360008054600160a060020a031916600160a060020a0392909216919091179055565b50805460018160011615610100020316600290046000825580601f1061164557506112fd565b601f0160209004906000526020600020908101906112fd91906116e1565b828054600181600116156101000203166002900490600052602060002090601f016020900481019282601f106116a457805160ff19168380011785556116d1565b828001600101855582156116d1579182015b828111156116d15782518255916020019190600101906116b6565b506116dd9291506116e1565b5090565b610b5091905b808211156116dd57600081556001016116e756fea165627a7a723058209ea2293b2a8a0dbfcbb22303e581149f1b6cc6d03a52c1cf95cce70b036ec5e30029",
  "source": "pragma solidity ^0.5.0;\n\nimport \"./util/SafeMath.sol\";\nimport \"./util/Ownable.sol\";\n\n/**\n *@title Factory contract for creating new payment channels\n */\ncontract ScaaSSC is Ownable {\n    \n    using SafeMath for uint256;\n    \n    enum ChannelState { INIT, OPENED, CLOSED }\n    uint public oraclePercantage_ = 10; // trenutno 10 %\n    uint public minStake = 0.005 ether; // minimalno lahko greš v kanal z 0.005 ethra\n\n    struct Channel {\n        address payable oracleAddress;\n        string ipnsId;\n        address a;\n        address b;\n        mapping(address=>uint) balances;\n        ChannelState currentState;\n    }\n    \n    mapping(uint => Channel) public channels;\n    \n    /// ---------- USER-CENTRIC FUNCTIONS ---------- /// 1,\"0xdd870fa1b7c4700f2bd7f44238821c26f7392148\",1,\"0x4b0897b0513fdc7c541b6d9d7e929c4e5364d2db\"\n    modifier checkNewChannel(uint _channelId, address payable _oracleAddress, string memory _ipnsId, address _b) {\n        require(_channelId != 0 && _oracleAddress != address(0x0) && bytes(_ipnsId).length != 0 && _b != address(0x0));\n        require(bytes(channels[_channelId].ipnsId).length == 0); // kanal z podanim IDjem se ne obstaja\n        require(minStake <= msg.value);\n        _;\n    }\n    \n    modifier checkJoinChannel(uint _channelId) {\n        require(_channelId != 0);\n        require(channels[_channelId].balances[channels[_channelId].a] == msg.value - (msg.value.div(100).mul(oraclePercantage_)));\n        require(channels[_channelId].b == msg.sender);\n        require(channels[_channelId].currentState == ChannelState.INIT);\n        _;\n    }\n    \n    modifier checkExitChannel(uint _channelId) {\n        require(_channelId != 0);\n        require(channels[_channelId].a == msg.sender);\n        require(channels[_channelId].currentState == ChannelState.INIT);\n        _;\n    }\n    \n    modifier checkRefundChannel(uint _channelId) {\n        require(_channelId != 0);\n        require(channels[_channelId].currentState == ChannelState.CLOSED);\n        require(channels[_channelId].balances[msg.sender] != 0);\n        _;\n    }\n    \n    function newChannel(uint _channelId, address payable _oracleAddress, string memory _ipnsId, address _b) checkNewChannel(_channelId, _oracleAddress, _ipnsId, _b) public payable {\n        channels[_channelId]  =  Channel(_oracleAddress, _ipnsId, msg.sender, _b, ChannelState.INIT);\n        Channel storage _temp = channels[_channelId];\n        _temp.oracleAddress.transfer(msg.value.div(100).mul(oraclePercantage_)); // 10% od gre k oraclu\n        _temp.balances[msg.sender] = msg.value - (msg.value.div(100).mul(oraclePercantage_));\n        _temp.balances[_b] = msg.value - (msg.value.div(100).mul(oraclePercantage_));\n    }\n    \n    function joinChannel(uint _channelId) checkJoinChannel(_channelId) external payable {\n        Channel storage _temp = channels[_channelId];\n        _temp.balances[msg.sender] = msg.value - (msg.value.div(100).mul(oraclePercantage_)); // 90% gre za kanal\n        _temp.oracleAddress.transfer(msg.value.div(100).mul(oraclePercantage_)); // 10% od gre k oraclu\n        _temp.currentState = ChannelState.OPENED;\n    }\n   \n    function exitChannel(uint _channelId) checkExitChannel(_channelId) external {\n        Channel storage _temp = channels[_channelId];\n        address(uint160(msg.sender)).transfer(_temp.balances[msg.sender]);\n        _temp.currentState = ChannelState.CLOSED;\n        delete channels[_channelId];\n    }\n    \n    function refund(uint _channelId) checkRefundChannel(_channelId) external {\n        Channel storage _temp = channels[_channelId];\n        uint refundValue = _temp.balances[msg.sender];\n        _temp.balances[msg.sender] = 0;\n        msg.sender.transfer(refundValue);\n        if(_temp.balances[_temp.a] == 0 && _temp.balances[_temp.b] == 0) {\n            delete channels[_channelId];\n        }\n    }\n    \n    /// ---------- SYSTEM-CENTRIC FUNCTIONS ---------- ///\n    modifier checkCloseChannel(uint _channelId) {\n        require(_channelId != 0);\n        require(channels[_channelId].currentState == ChannelState.OPENED);\n        require(channels[_channelId].oracleAddress == msg.sender);\n        _;\n    }\n    \n    function getChannelInfo(uint _channelId) external view returns(address, string memory, address, address, uint, uint, ChannelState){\n        Channel storage _temp = channels[_channelId];\n        return (_temp.oracleAddress, _temp.ipnsId, _temp.a, _temp.b, _temp.balances[_temp.a], _temp.balances[_temp.b], _temp.currentState);\n    }\n    \n    function closeChannel(uint _channelId, uint balanceAddr1_, uint balanceAddr2_, bytes calldata _ipfsContent, bytes calldata _signatureOracle, bytes calldata _signatureLast) checkCloseChannel(_channelId) external {\n        Channel storage _temp = channels[_channelId];\n        bytes32 hash = toEthPersonalSignedMessageHash(bytes(_ipfsContent));\n        require(_temp.oracleAddress == address(uint160(recoverAddress(hash, _signatureOracle))));\n        require(_temp.a == address(uint160(recoverAddress(hash, _signatureLast))) || _temp.b == address(uint160(recoverAddress(hash, _signatureLast))));\n        _temp.balances[_temp.a] = balanceAddr1_;\n        _temp.balances[_temp.b] = balanceAddr2_;\n        _temp.currentState = ChannelState.CLOSED;\n    }\n    \n    /// ---------- UTIL FUNCTIONS ---------- ///\n    function toEthPersonalSignedMessageHash(\n        bytes memory _msg\n    )\n        pure\n        public\n        returns (bytes32 signHash)\n    {\n        signHash = keccak256(abi.encodePacked(\"\\x19Ethereum Signed Message:\\n\", uint2str(_msg.length), _msg));\n    }\n    \n    function uint2str(uint _i) internal pure returns (string memory _uintAsString) {\n        if (_i == 0) {\n            return \"0\";\n        }\n        uint j = _i;\n        uint len;\n        while (j != 0) {\n            len++;\n            j /= 10;\n        }\n        bytes memory bstr = new bytes(len);\n        uint k = len - 1;\n        while (_i != 0) {\n            bstr[k--] = byte(uint8(48 + _i % 10));\n            _i /= 10;\n        }\n        return string(bstr);\n    }\n\n    \n    function recoverAddress(\n        bytes32 _hash,\n        bytes memory _signatures\n    )\n        pure\n        internal\n        returns (address)\n    {\n        uint8 v;\n        bytes32 r;\n        bytes32 s;\n        \n         assembly {\n            r := mload(add(_signatures, 0x20))\n            s := mload(add(_signatures, 0x40))\n            v := byte(0, mload(add(_signatures, 0x60)))\n        }\n\n        if (v < 27) v += 27;\n\n        require(v == 27 || v == 28);\n        return ecrecover(_hash, v, r, s);\n    }\n\n}",
  "sourcePath": "/home/blaz/Documents/gitLabUM/payment-service-truffle/contracts/ScaaSSC.sol",
  "compiler": {
    "name": "solc",
    "version": "0.5.0+commit.1d4f565a.Emscripten.clang"
  },
  "schemaVersion": "3.0.2",
  "updatedAt": "2019-05-23T12:37:07.917Z",
  "devdoc": {
    "methods": {
      "isOwner()": {
        "return": "true if `msg.sender` is the owner of the contract."
      },
      "owner()": {
        "return": "the address of the owner."
      },
      "renounceOwnership()": {
        "details": "Allows the current owner to relinquish control of the contract. It will not be possible to call the functions with the `onlyOwner` modifier anymore."
      },
      "transferOwnership(address)": {
        "details": "Allows the current owner to transfer control of the contract to a newOwner.",
        "params": {
          "newOwner": "The address to transfer ownership to."
        }
      }
    }
  },
  "userdoc": {
    "methods": {
      "renounceOwnership()": {
        "notice": "Renouncing ownership will leave the contract without an owner, thereby removing any functionality that is only available to the owner."
      },
      "toEthPersonalSignedMessageHash(bytes)": {
        "notice": "---------- UTIL FUNCTIONS ---------- ///"
      }
    },
    "notice": "title Factory contract for creating new payment channels"
  }
}